8=FIX.4.2|9=132|35=D|34=16|49=BANZAI|52=20160312-20:00:05.518|56=EXEC|11=1457812805394|21=1|38=100|40=1|54=1|55=VOD.L|59=0|60=20160312-20:00:05.518|10=198|
8=FIX.4.2|9=74|35=A|34=138|49=FIXIMULATOR|52=20080713-09:54:16.376|56=BANZAI|98=0|108=30|10=129|
8=FIX.4.2|9=194|35=6|34=141|49=FIXIMULATOR|52=20080713-09:54:28.295|56=BANZAI|15=USD|22=5|23=I1215942868296|27=61000|28=N|44=27.7884|48=KPA.N|54=2|55=KPA|62=20080713-10:24:28.294|107=INNKEEPERS USA TRUST|130=N|10=041|
8=FIX.4.2|9=62|35=0|34=139|49=BANZAI|52=20080713-09:54:46.592|56=FIXIMULATOR|10=088|
